:020000040800F2
:1000000090060020690100087101000873010008D2
:1000100000000000000000000000000000000000E0
:100020000000000000000000000000007501000852
:1000300000000000000000007701000879010008BE
:100040007B0100087B0100087B0100087B010008A0
:100050007B0100087B0100087B0100087B01000890
:100060007B0100087B0100087B0100087B01000880
:100070007B0100087B0100087B0100087B01000870
:100080007B0100087B010008000000007B010008E4
:100090007B0100087B0100087B0100087B01000850
:1000A0007B0100087B0100087B0100087B01000840
:1000B0007B010008000000007B0100080000000038
:1000C00000F002F800F040F80CA030C808382418FE
:1000D0002D18A246671EAB4654465D46AC4201D180
:1000E00000F032F87E460F3E0FCCB6460126334272
:1000F00000D0FB1AA246AB4633431847A01D0000B0
:10010000C01D0000103A02D378C878C1FAD852074F
:1001100001D330C830C101D504680C6070470000BD
:100120000023002400250026103A01D378C1FBD813
:10013000520700D330C100D50B6070471FB5C046D1
:10014000C0461FBD10B510BD01F076FE1146FFF789
:10015000F5FF00F093F801F08EFE03B4FFF7F2FF15
:1001600003BC01F093FE00000748804707480047A2
:10017000FEE7FEE7FEE7FEE7FEE7FEE70448054987
:10018000054A064B70470000CF180008C100000860
:100190009000002090060020900200209002002095
:1001A00000B591B00121880400F0D2FC0121480281
:1001B00000F0DCFC0121022000F0E6FC02200990A6
:1001C000032108A801720021C17209A9614800F049
:1001D00099F9614800F03AFD06A800F0CAFD01A8AF
:1001E00000F05EFFFF200790002168460183018434
:1001F000418306A9584800F08FFD2021564801F0A0
:10020000BDFA564801F0F8FB00200B90012108A828
:10021000017488020D90C0200E9000200F90109065
:100220000BA94E4801F0F6FB0322012149024B487D
:1002300001F0A2FC494801F0D5FC0121474801F03A
:1002400029FC0121454801F017FC0121434801F038
:10025000FDFB00BF4249414801F00DFD0028F9D0E7
:1002600001213D4800F0DDFD3C4801F0DDFC11B00E
:1002700000BD00E0401E0028FCD17047012600248C
:1002800000F090F800F0E4F8FFF78AFF354800F03E
:1002900077F8F0032F4920310881401108811DE0D3
:1002A0002E4801F0C6FC3049088009882F4A514386
:1002B00008462F4901F01AFD2E490880084600889B
:1002C000844201DA084604882248808A0121890292
:1002D0004840204988822848FFF7CBFF3046761CEB
:1002E000FF21F5318842DBDB0120C0031949886119
:1002F00040111849203108812AE0184801F099FC82
:10030000194908800988194A51430846184901F0DB
:10031000EDFC1849088060000988884213DA012042
:10032000C0030C498861C103486A7D21C90001F0FE
:10033000D3FC7D20C0000D18284600F021F80F489E
:10034000FFF797FF04E00120C00302492031088134
:10035000D3E70000000400480004004000240140EE
:1003600001000001DC05000000000020E40C00009A
:10037000FF0F00000200002080BB000000530700B8
:1003800030490860704710B504467D21C9006143BB
:100390000846642101F0AAFC7D21C90040182949C2
:1003A000086010BD00B58BB00121880400F0D0FBBF
:1003B0000120C0020990022108A8017203214172A4
:1003C000002181720121C17209A91F4800F09AF829
:1003D00002220B211C4800F016F90121084600F00A
:1003E000D3FB1A4807902F216846018300214183DF
:1003F000018408A8817006A90120800700F08CFC08
:100400006021684681800121C1800421018102218F
:10041000018200214182FF21013181820021C182BC
:100420000020039001A90120800700F0EEFD0121CA
:10043000880700F0F6FC0121880700F018FD0BB0DA
:1004400000BD00004000004000040048204E0000B5
:100450001CB50121880400F07BFB21208002009064
:100460000121684601710321417100218171C1712F
:100470006946024800F046F81CBD00000004004830
:1004800010B504460920C006844209D10121480460
:1004900000F088FB00210120400400F083FB30E0E5
:1004A0006A48844208D10121000200F07BFB002150
:1004B000200200F077FB24E06548844208D1012146
:1004C000000200F06FFB0021200200F06BFB18E03F
:1004D0006048844209D10121080500F063FB002136
:1004E0000120000500F05EFB0BE05B48844208D170
:1004F0000121880500F056FB00210120800500F055
:1005000051FB10BDF0B50A4600210023002400BFB6
:100510003DE001258D402B4615681D402C469C4230
:1005200034D11579012D02D01579022D16D18568A7
:100530004F000326BE40B543856055794E00B54057
:10054000866835438560858801268E40B543858061
:10055000858896798E40B6B23543858005684F0010
:100560000326BE40B543056015794E00B5400668C8
:1005700035430560C5684F000326BE40B543C560DE
:10058000D5794E00B540C6683543C560491C102971
:10059000BFD3F0BD314901600021017102214171D9
:1005A00000218171C17170470122120413460B436F
:1005B0001A46C261C161C261C269C269704702461E
:1005C0000020138A0B4201D0012000E00020704778
:1005D0000146088A704702460020938A0B4201D0E8
:1005E000012000E0002070470146888A7047816141
:1005F000704701857047002A01D0816100E00185C4
:10060000704781827047F0B5002300244D07EE0E3D
:100610001546B5402B46CD10AE0005462035AD59E8
:100620004E07F70E0F26BE40B543CE10B600074664
:100630002037BD51CD10AE003D46AD591D432C466F
:10064000CD10AD003E467451F0BD000000040048DE
:1006500000080048000C004800140048FFFF00009C
:10066000FB48006801210843F949086008464068D2
:10067000F8490840F649486008460068F6490840CD
:10068000F349086008460068012189048843F0495D
:100690000860084640683F2109048843EC494860E7
:1006A0000846C06A00090001C8620846006BFF21C5
:1006B00054318843E64908630846406B40084000CF
:1006C00048630020886070470021E14A917011461C
:1006D0008870704710B50246002100230020511198
:1006E000002902D1DA4C23680BE0012902D1D84C51
:1006F000236A06E0022902D1D54C636A01E0D44C9A
:10070000636BD106C90E01248C401C4201D001202C
:1007100000E0002010BD70B500240026002500BFB9
:100720001120FFF7D7FF0546641C05200002844214
:1007300001D0002DF4D01120FFF7CCFF002801D00C
:10074000012600E00026304670BD01460020C04A68
:100750001068F82302469A431046CA001043BC4A68
:1007600010607047002806D0B9490968012211437A
:10077000B74A116005E0B649096849084900B44A1A
:100780001160704701460020B14A506BF8230246C1
:100790009A431046CA001043AD4A50637047002880
:1007A00006D0AB49496B01221143A94A516305E0C8
:1007B000A749496B49084900A54A51637047002879
:1007C00006D0A349496B04229143A14A516305E035
:1007D0009F49496B042211439D4A516370479C49CC
:1007E000096A490849009A4A11621146096A0422B5
:1007F0009143974A11621146096A01431162704799
:100800009349096A18229143914A11621146096A73
:10081000014311627047002806D08D49496A0122C0
:1008200011438B4A516205E08949496A49084900E8
:10083000874A51627047864A52683D231B049A4397
:10084000834B5A601A46526803460B431A43804B47
:100850005A607047002807D07D49096801221206B6
:1008600011437B4A116006E07949096801221206AA
:100870009143774A1160704701460020744AD06A5C
:100880000009000102460A431046714AD0627047CF
:10089000002807D06E4909680122D20411436C4A2E
:1008A000116006E06A4909680122D2049143684A4E
:1008B000116070476649C871704701460020644A5C
:1008C00050688008800002460A431046604A506023
:1008D00070475F4840680C2108407047014600207F
:1008E0005B4A5068F02302469A43104602460A4388
:1008F0001046574A5060704701460020544A5068DD
:1009000007231B0202469A43104602460A4310463A
:100910004F4A506070474E49496801229203914303
:100920004B4A51601146496882B21143484A5160AE
:100930001146096B92159143454A11631146096BA3
:10094000020C1143424A116370474149096B40222E
:1009500091433F4A11631146096B0143116370478C
:100960003B49096B10229143394A11631146096BC7
:100970000143116370473649096B89088900344A7D
:1009800011631146096B014311637047FEB50446BC
:100990000025002600200190009000272C48406888
:1009A0000C2108400546002D04D0042D05D0082D4B
:1009B00028D105E02948206027E02848206024E06D
:1009C000234840680F2189040840064620484068B3
:1009D0000121090408400190B00C861C01980028F0
:1009E00003D11F48704320600BE01948C06A00071C
:1009F000000F401C00901948009901F06DF97043F8
:100A0000206002E01548206000BF00BF1048406829
:100A1000F021084005462D091248475D2068F8403E
:100A200060600B48406807210902084005462D0A0E
:100A30000C48475D6068F840A0600548006BFF21E6
:100A400001310840884211D00748E0601CE00000F6
:100A5000001002400CB8FFF8FFFFF6FE00127A000B
:100A600000093D0008000020809FD50074484068C0
:100A7000012189030840884203D0A0684008E06053
:100A800002E0A0688008E0606D48006B40210840EB
:100A9000402802D06B48206102E00120C0032061A1
:100AA0006748006B10210840102802D0664860613A
:100AB00001E0206860616248006B8007800F02D10E
:100AC000A068A06119E05E48006B8007800F0128D4
:100AD00002D12068A06110E05948006B8007800FA8
:100AE000022802D18003A06107E05548006B80070F
:100AF000800F032801D15448A061FEBD5049096A06
:100B000001434F4A11627047002807D04C49096AD7
:100B10000122D20311434A4A116206E04849096A98
:100B20000122D2039143464A11627047002807D040
:100B30004349096A012212041143414A116206E045
:100B40003F49096A0122120491433D4A11627047EC
:100B5000002905D03A4A52690243394B5A6104E0F0
:100B6000374A52698243364B5A617047002905D093
:100B7000334A92690243324B9A6104E0304A9269E7
:100B800082432F4B9A617047002905D02C4AD269C5
:100B900002432B4BDA6104E0294AD2698243284B95
:100BA000DA617047002905D0254A926A0243244B36
:100BB0009A6204E0224A926A8243214B9A62704709
:100BC000002905D01E4AD26802431D4BDA6004E0BA
:100BD0001B4AD26882431A4BDA607047002905D05D
:100BE000174A12690243164B1A6104E0144A12694B
:100BF0008243134B1A617047002905D0104A527A7C
:100C000002430F4B5A7204E00D4A527A82430C4B56
:100C10005A7270470A48406A012109060843084988
:100C20004862704701460020054A92680A4201D096
:100C3000012000E0002070470149887270470000E1
:100C4000001002401280000000127A0010B5044625
:100C5000FE48844208D10121C014FFF7B1FF0021F2
:100C6000E014FFF7ADFF56E001208007844208D171
:100C700001210846FFF7B2FF00210120FFF7AEFF78
:100C800049E0F348844208D101210220FFF7A6FF82
:100C900000210220FFF7A2FF3DE0EE48844208D188
:100CA00001211020FFF79AFF00211020FFF796FF87
:100CB00031E0E948844208D101218015FFF78EFF19
:100CC0000021A015FFF78AFF25E0E448844209D1FE
:100CD00001210804FFF774FF002101200004FFF741
:100CE0006FFF18E0DE48844209D101214804FFF774
:100CF00067FF002101204004FFF762FF0BE0D948A5
:100D0000844208D101218804FFF75AFF0021012005
:100D10008004FFF755FF10BD00220288CB4B98429C
:100D200006D001239B07984202D0C94B984203D1B9
:100D3000CD4B1A404B881A43C64B984203D0CB4B3D
:100D40001A400B891A4302804B68C3620B880385E3
:100D5000BE4B984208D0C14B984205D0C04B984238
:100D600002D0C04B984201D18B7A03860123838243
:100D700070470021C9434160002101800181418009
:100D8000817270470185828270470A46002101887E
:100D9000B54B19400B461343194601807047416219
:100DA0007047C16270470146486A70470146088D26
:100DB0007047002904D0028802231A43028004E00D
:100DC0000288A94B6E331A4002807047002904D074
:100DD000028804231A43028004E00288A24B6C3389
:100DE0001A4002807047002904D0028880231A43E9
:100DF000028004E002889C4B103B1A40028070473E
:100E00000288994B68331A40028002880A430280A4
:100E100070470288954B1A40028002880A4302807C
:100E20007047002904D0028801231A43028004E09D
:100E300002888D4B6F331A40028070470A884B88B6
:100E40001A438B881A43CB881A430B891A434B8960
:100E50001A438B891A4344231A5270470021018098
:100E600041808180C1800181418181817047002959
:100E700007D04422125A0123DB031A4344231A5297
:100E800005E04422125A53045B0C4422135270476B
:100E900070B5002400220023058C734E6F36354058
:100EA0000584028C8388048B6F4D2C40B51E2C402A
:100EB0000D882C43751E2A408D892A434D882A436C
:100EC000624DA84208D0654DA84205D0644DA842A5
:100ED00002D0644DA84212D1634D68352A40CD89B5
:100EE0002A43614D6C352A408D882A435E4D903DE2
:100EF0002B405F4D2B400D8A2B434D8A2B43838023
:100F000004838D684563028470BD70B5002400229F
:100F10000023058C544E603635400584028C83884E
:100F2000048B544D2C40514D2C400D882D062D0C1A
:100F30002C434D4D50352A408D892D052D0C2A43CB
:100F40004D882D052D0C2A43404DA84219D1464D00
:100F5000103D2A40CD892D052D0C2A43424D3035B8
:100F60002A408D882D052D0C2A43434D2B40434D9F
:100F70002B400D8AAD042D0C2B434D8AAD042D0C56
:100F80002B43838004838D688563028470BD70B5B4
:100F9000002400220023058C334E903E354005840A
:100FA000028C8388848B304D2C402F4D6D352C4026
:100FB0000D882C432E4D2A408D892D062D0C2A4359
:100FC0004D882D062D0C2A43204DA84217D12B4DBC
:100FD0002A40CD892D062D0C2A43274D2A408D8885
:100FE0002D062D0C2A43264D2B40264D2B400D8AD5
:100FF0002D052D0C2B434D8A2D052D0C2B43838065
:1010000084838D68C563028470BD70B5002200239F
:101010000024058C1A4E35400584038C8488828B0D
:10102000144D2A40114D2A400D882D062D0C2A43BF
:10103000144D2B408D892D072D0C2B434D882D07EA
:101040002D0C2B43014DA84224D11DE0002C014062
:10105000000400400010004000200040004001401B
:1010600000440140004801408FFF0000FFFC0000E9
:10107000FFFD0000FF8F0000FFFB0000FFF70000F6
:10108000FFEF0000FFDF0000FC4D2C400D8AAD0596
:101090002D0C2C43848082838D680564038470BD8D
:1010A000002101804180818081608181C181018234
:1010B0004182704770B5034600200024184618305E
:1010C00001258D40ACB21D8CA5431D84002901D0A3
:1010D000082909D14D10281805687026B543056008
:1010E0000568154305600DE00D1F2D046D0C2818D3
:1010F000056807263603B543056005681606360CF5
:101100003543056070BD4163704781637047C163BB
:101110007047016470470A460021018BD84B194083
:101120000B4613431946018370470A460021018B81
:10113000D44B194013061B0C1943018370470A4610
:101140000021818BCE4B19400B46134319468183F6
:1011500070470A460021818BCA4B194013061B0CAD
:10116000194381837047002904D0828801231A43E0
:10117000828004E08288C24B6F331A4082807047BD
:101180000A460021018BBE4B683319400B461343BE
:101190001946018370470A460021018BBA4B19405A
:1011A00013061B0C1943018370470A460021818BEB
:1011B000B34B683319400B4613431946818370477C
:1011C0000A460021818BB04B194013061B0C1943B2
:1011D000818370470A460021018BA94B6C3319406B
:1011E0000B4613431946018370470A460021018BC1
:1011F000A64B194013061B0C1943018370470A467E
:101200000021818B9E4B6C3319400B4613431946CA
:10121000818370470A460021818B9C4B194013063D
:101220001B0C1943818370470A460021018B944BA4
:10123000103B19400B4613431946018370470A4679
:101240000021018B4904490C13061B0C194301832F
:1012500070470A460021818B894B103B19400B4691
:1012600013431946818370470A460021818B490444
:10127000490C13061B0C1943818370470A46002151
:10128000018C7F4B6E3319400B4613431946018482
:1012900070470A460021018C794B683319400B4690
:1012A00013431946018470470A460021018C744B90
:1012B0005033194013051B0C1943018470470A462B
:1012C0000021018C6E4B103B194013051B0C194378
:1012D000018470470A460021018C6D4B19401306AA
:1012E0001B0C1943018470470A460021018C664B90
:1012F000194013061B0C1943018470470A4600214C
:10130000018C644B194013071B0C1943018470476F
:1013100002895B4B68331A40028102890A430281C9
:10132000704730B5002301248C40A3B2048C9C4349
:101330000484048C15468D40ADB22C43048430BD2A
:1013400030B5002304248C40A3B2048C9C43048455
:10135000048C15468D40ADB22C43048430BD002969
:1013600004D0828804231A43828004E08288444B9C
:101370006C331A4082807047828B474B1A408283BD
:10138000828B0B061B0C1A4382837047F8B50C4600
:101390000021002500260096068C404F3E40068422
:1013A000818B058C2607360C00963D4E3140160683
:1013B000360C31431E07360C31433A4E3540012777
:1013C0003F03009E3E43354381830584F8BD828BF5
:1013D0002B4B64331A408283828B0A43828370478B
:1013E000F8B50C460021002500260096068C244FF7
:1013F000903F3E400684818B058C2606360C009675
:101400001F4E833E31401E05360C16433143264E97
:101410003540FF270137009E3E43354381830584D5
:10142000F8BD028B1C4B1A400283028B0B061B0C6F
:101430001A4302837047F8B50C46002100250026A8
:101440000096068C0E4F60373E400684018B058C5B
:101450002605360C0096124E31401E07360C3143DD
:101460001606360C3143064E303E35401027009E9E
:101470003E43354301830584F8BD0000FFBF0000F3
:101480008FFF0000FF8F0000FFF70000FFFB000050
:10149000FFFD0000FFDF0000FFF30000FFEF000092
:1014A000FF0C0000FF5F0000FFF50000028BD84B2F
:1014B0001A400283028B0A4302837047F0B50C4640
:1014C00000210025068CD24F0B373E400684018B4D
:1014D000058CCF4EE73E31401E05360C1643314396
:1014E000CB4EB61C35400126264335430183058487
:1014F000F0BD70B505460C46208800280AD1238926
:10150000A28861882846FFF7D9FFE1882846FFF7BF
:10151000CDFF25E0208804280AD12389A28861888C
:101520002846FFF788FFE1882846FFF77AFF17E093
:10153000208808280AD12389A28861882846FFF7D5
:101540004FFFE1882846FFF742FF09E02389A28880
:1015500061882846FFF71AFFE1882846FFF70CFF4D
:1015600070BD002101804180012181800021C18066
:1015700001817047F8B505460C46002601276088B2
:10158000002801D1022600E00026A088012801D110
:10159000022700E001272088002814D12389A2888F
:1015A00061882846FFF78AFFE1882846FFF77EFF1B
:1015B00023893A4631462846FFF73DFFE188284611
:1015C000FFF72FFF13E02389A28861882846FFF7E1
:1015D00032FFE1882846FFF724FF23893A46314647
:1015E0002846FFF76BFFE1882846FFF75FFFF8BD4D
:1015F0000146486B70470146886B70470146C86BCF
:1016000070470146086C7047002A03D083890B435A
:10161000838102E083898B43838170478182704795
:1016200002460020138A0B4201D0012000E0002076
:101630007047CA430282704730B50246002000233B
:101640000024158A0D402B4695890D402C46002B11
:1016500003D0002C01D0012000E0002030BDCA439F
:101660000282704710B50B4613434824235210BD25
:10167000002A03D083890B43838102E083898B4353
:1016800083817047002904D0828808231A4382800E
:1016900004E082885E4B1B1D1A40828070470189DE
:1016A0005B4A521D1140018170470A4600210189A1
:1016B000574B643B19400B46134319460181704751
:1016C00030B504460D4629462046FFF7EEFF208937
:1016D00007210843208130BDF8B504460D46164663
:1016E0001F46602D06D13B46012231462046FFF7BA
:1016F000A2FE05E03B46012231462046FFF7DEFE12
:1017000029462046FFF7D1FF208907210843208181
:10171000F8BD30B50C4600210189C9B21D062D0C5B
:10172000154325432943018130BDFFB505460E46CB
:10173000174600243A4631462846039BFFF7E9FF47
:101740002C893348401D0440072004433048643846
:101750000440702004432C81FFBDF0B504460D46C3
:1017600016461F463B46324629462046FFF7D1FF24
:1017700020890121890308432081F0BD8288244B00
:10178000643B1A40828082880A43828070470289C3
:101790001F4B5B1D1A40028102890A430281704778
:1017A00002891B4B743B1A40028102890A43028161
:1017B0007047F0B50C460021002500260189058BF5
:1017C000068C134F7F1D39400F4627433946114F72
:1017D0003D40FF2702373D430D4F9E3F3E401F05D2
:1017E0003F0C17433E43018105830684F0BD002969
:1017F00004D0828880231A43828004E08288044BCC
:10180000743B1A408280704750221152704700008A
:10181000F3FF0000FCFC0000002100206E4A12686B
:1018200001231B041A436C4B1A6000BF6A4A1268FA
:1018300001235B041A401046491C002803D10522ED
:1018400012029142F2D1644A126801235B041A42E7
:1018500001D0012000E00020012837D111225F4B88
:101860001A605D4A52685C4B5A601A4652685A6068
:101870001A4652683F231B049A43574B5A601A4634
:10188000526811231B041A43534B5A601A461268BC
:1018900003061A43504B1A6000BF4F4A12680123D7
:1018A0005B061A42F9D04C4A5268920892004A4BA1
:1018B0005A601A46526802231A43474B5A6000BFC7
:1018C000454A52680C231A40082AF9D1704710B5CE
:1018D00041480068012108433F49086008464068C4
:1018E0003F4908403C494860084600683D49084077
:1018F000394908600846006801218904884336494F
:101900000860084640683F2109048843324948601E
:101910000846C06A00090001C8620846006BFF2142
:10192000543188432C4908630846406B4008400006
:10193000486300208860FFF76FFF10BDF8B50025F1
:10194000002400260027244840680C210840054652
:10195000002D04D0042D06D0082D2AD107E02248FE
:101960002249086029E020482049086025E01A48FB
:1019700040680F2189040840044617484068012147
:10198000090408400646A00C841C002E04D1184807
:101990006043164908600BE00F48C06A0007000F5B
:1019A000471C3946104800F097F960430F4908601A
:1019B00003E00D480D49086000BF00BF06484068BD
:1019C000F021084000090B490D5C08480068E84018
:1019D00006490860F8BD00000010024000200240E7
:1019E0000CB8FFF8FFFFF6FE00127A001800002086
:1019F00000093D001C00002010B50446B348844295
:101A000007D101214015FFF7DBF800216015FFF732
:101A1000D7F810BD10B50022C268AD4B1A400C7942
:101A200064030B6823438C682343CC6823430C690D
:101A300023434C6923431A43C26010BD0021016057
:101A400001718160C160016141617047002904D06A
:101A5000826801231A43826003E0826802231A43EA
:101A600082607047002A03D003690B43036102E0E0
:101A700003698B4303617047002905D0C2680123C5
:101A8000DB031A43C26004E0C2680123DB039A430C
:101A9000C2607047002905D0C26801239B031A4326
:101AA000C26004E0C26801239B039A43C26070478E
:101AB000002905D0C2680123DB051A43C26004E097
:101AC000C2680123DB059A43C26070470B041343CD
:101AD0000362704710B50A460021C1681F24A4069E
:101AE0000B46A34319460B4613431946C16010BD6C
:101AF000002905D0C26801239B051A43C26004E097
:101B0000C26801239B059A43C2607047002807D032
:101B1000704989680122D20511436E4A916006E03E
:101B20006C4989680122D20591436A4A91607047E5
:101B3000002807D067498968012292051143654A48
:101B4000916006E063498968012292059143614AE8
:101B500091607047002807D05E498968012212060B
:101B600011435C4A916006E05A49896801221206D5
:101B70009143584A9160704710B50B460021846A22
:101B80001C43846200BF0C4614432146416110BDD2
:101B9000002905D0C26801235B031A43C26004E038
:101BA000C26801235B039A43C2607047002905D0D5
:101BB000C26801231B041A43C26004E0C268012307
:101BC0001B049A43C2607047002905D0C2680123F4
:101BD0001B031A43C26004E0C26801231B039A433B
:101BE000C260704730B501460020002200238C6897
:101BF0000125ED072C438C6000BF8C68E30FDB07E9
:101C0000521C0F242403A24201D0002BF5D18C6872
:101C1000E40FE40701D1086C00E0002030BD8168CA
:101C20001022114381607047816804221143816052
:101C300070470146086C80B27047002904D0C26822
:101C400001231A43C26003E0C26852085200C26016
:101C50007047C26802239A43C260C2680A43C260E6
:101C60007047002A03D043680B43436002E0436897
:101C70008B434360704730B50246002000230124A7
:101C80002406214205D0946801252D06AC43234645
:101C900000E013681C460C4201D0012000E0002047
:101CA00030BD0160704710B5024600200023546823
:101CB0000C40234614680C4203D0002B01D00120B5
:101CC00000E0002010BD01607047000000240140CA
:101CD00003D2FFFF00270140002203098B422CD3CF
:101CE000030A8B4211D300239C464EE003460B436C
:101CF0003CD4002243088B4231D303098B421CD3CE
:101D0000030A8B4201D394463FE0C3098B4201D3BF
:101D1000CB01C01A524183098B4201D38B01C01AF7
:101D2000524143098B4201D34B01C01A524103096E
:101D30008B4201D30B01C01A5241C3088B4201D31D
:101D4000CB00C01A524183088B4201D38B00C01ACA
:101D5000524143088B4201D34B00C01A5241411AF1
:101D600000D201465241104670475DE0CA0F00D0D4
:101D70004942031000D34042534000229C460309CD
:101D80008B422DD3030A8B4212D3FC22890112BA53
:101D9000030A8B420CD3890192118B4208D389012B
:101DA00092118B4204D389013AD0921100E0890943
:101DB000C3098B4201D3CB01C01A524183098B4224
:101DC00001D38B01C01A524143098B4201D34B010D
:101DD000C01A524103098B4201D30B01C01A524170
:101DE000C3088B4201D3CB00C01A524183088B42F7
:101DF00001D38B00C01A5241D9D243088B4201D380
:101E00004B00C01A5241411A00D20146634652416A
:101E10005B10104601D34042002B00D54942704769
:101E200063465B1000D3404201B50020C046C04667
:101E300002BD704770477047754600F023F8AE4604
:101E4000050069465346C008C000854618B020B555
:101E5000FEF794F960BC00274908B6460026C0C5C5
:101E6000C0C5C0C5C0C5C0C5C0C5C0C5C0C5403D52
:101E700049008D4670470446C046C0462046FEF7DE
:101E80006CF90000004870472C0000200149182020
:101E9000ABBEFEE72600020070470000BC1E000833
:101EA000000000202C00000004010008E81E0008CB
:101EB0002C00002064060000200100080000000043
:101EC000DC0500000000000001020304010203041D
:101ED00006070809006CDC0200000000000000009A
:081EE0000102030406070809D2
:04000005080000C12E
:00000001FF
